:040000001DC0FECF52
:10000400FDCFFCCFFBCFFACFF9CFF8CFF7CFF6CFA8
:10001400F5CFF4CFF3CFF2CFF1CFF0CFEFCFEECFD8
:10002400EDCFECCFEBCF00065B4F666D7D077F6FA6
:10003400793F71777C395E00F894EE27ECBBF1E0F0
:10004400FBBFEBBFE5BF8DE0A2E0BB27ED938A9534
:10005400E9F780E092E0A0E6ED930197E9F7EFE598
:10006400EDBFE2E0EEBFC0EED0E000C0EFE0EABBDF
:10007400E8E0EBBBEFEFE7BBE0E0E8BBE4BBE5BBEC
:10008400E1BBE2BBE3BFE2BFECBFEFBDEEBDEDBD44
:10009400ECBDE7BDE6BDEBBDEABDE9BDE8BDE2BD33
:1000A400E5BDE4BDE3BDE9BFE5BFE4BFEAB9E0E80F
:1000B400E8B9E0E0E0BFE6B9EDB9E6BF5524EEEFFC
:1000C4004DD011F4E1E05E2E50D011F4E4E05E2E48
:1000D4004FD011F4E7E05E2E4ED011F4EAE05E2E2C
:1000E400EDEF3CD011F4E2E05E2E3FD011F4E5E0F8
:1000F4005E2E3ED011F4E8E05E2E3DD011F4EBE02C
:100104005E2EEBEF2BD011F4E3E05E2E2ED011F433
:10011400E6E05E2E2DD011F4E9E05E2E2CD011F431
:10012400ECE05E2EE7EF1AD011F4EDE05E2E1DD068
:1001340011F4EEE05E2E1CD011F4EFE05E2E1BD025
:1001440011F4E0E15E2EE52DF0E0E65DFF4F049052
:1001540008BAA2E3B0E012D0B1CFFFCFEBBBE9B352
:10016400E07F4E2EE0EEE4150895E0EDE4150895E9
:10017400E0EBE4150895E0E7E4150895109639F0EE
:10018400A8958AEF90E00197F1F71197C9F70895C0
:00000001FF
